:020000040000FA
:0400000080312628FD
:100008007E1480318B1E09280A2812280B1D0D2802
:100018000E28122884314924803124280B1F1528E2
:10002800162824282100131E1A281B2824282000FB
:10003800131E1F2820282428843184248031242852
:100048007E100900803128288430840083308500A0
:10005800A03086000030870040308431D8248031B9
:10006800F001F101F201F301F401F50120308400FF
:100078000030850025308431DE2480317E10200058
:100088008331022B20004008A03E8600870101082A
:10009800C6002A0846060319522853285428C4299A
:1000A800C8302006031959285A285B28C4298B30E0
:1000B80021060319602861286228C429BF01C01ECF
:1000C800662867286A2822008C146C2822008C1065
:1000D80020004019702871288328C01974287528B1
:1000E8008328401A782879288328C01A7C287D28F4
:1000F800832822000C100D1025009101B329401906
:10010800862887289A28C0198A288B289A28401A6E
:100118008E288F289A28C01E922893289A28220071
:100128000C100D108431F0248031B32940199D281A
:100138009E28B128C019A128A228B128401EA528A8
:10014800A628B128C01AA928AA28B12822000C106C
:100158000D10833143238031B3294019B428B528C1
:10016800C528C019B828B928C528401EBC28BD28EC
:10017800C528C01EC028C128C52822000C100D1093
:10018800AD284019C828C928DB28C01DCC28CD288F
:10019800DB28401AD028D128DB28C01AD428D52833
:1001A800DB2822000C108431EA2480318028401991
:1001B800DE28DF28F128C01DE228E328F128401AAC
:1001C800E628E728F128C01EEA28EB28F1282200B3
:1001D8000C108431EA24803196284019F428F52837
:1001E8000429C01DF828F9280429401EFC28FD28E8
:1001F8000429C01A00290129042922000C10D72833
:100208004019072908291729C01D0B290C29172966
:10021800401E0F2910291729C01E13291429172930
:1002280022000C10ED28401D1A291B292B29C01962
:100238001E291F292B29401A222923292B29C01AB4
:10024800262927292B2922000C140D108028401D4F
:100258002E292F293F29C019322933293F29401A2D
:10026800362937293F29C01E3A293B293F29220030
:100278000C100D109628401D422943295329C019F6
:10028800462947295329401E4A294B295329C01A70
:100298004E294F29532922000C100D10AD28401D5E
:1002A800562957296729C0195A295B296729401EE9
:1002B8005E295F296729C01E6229632967292200F0
:1002C8000C100D10AD28401D6A296B297A29C01D14
:1002D8006E296F297A29401A722973297A29C01A36
:1002E800762977297A2922000C14D728401D7D29E0
:1002F8007E298D29C01D812982298D29401A8529A9
:1003080086298D29C01E89298A298D2922000C1445
:10031800ED28401D90299129A029C01D94299529CF
:10032800A029401E98299929A029C01A9C299D29ED
:10033800A02922000C14D728401DA329A429B329D9
:10034800C01DA729A829B329401EAB29AC29B32968
:10035800C01EAF29B029B32922000C14ED282000B3
:10036800C7014708203E8600870181010130C5008A
:100378004508C7070B304702031CC329C429B52900
:100388000800043026001306031DCB29CC29622A55
:100398007708F1007608F000053093002000390353
:1003A800031DD729D829902AB9012C087102031DE9
:1003B800DF292B087002031CE229E329EA292B080C
:1003C8007002AD002C08713BAE00F6292C08F9002C
:1003D8002B08F800F809F90970087807AD007108CA
:1003E800793DAE003008F9002F08F800F936F80C0E
:1003F800F936F80CF936F80C7808BB002E08F90025
:100408002D08F800F936F80CF936F80CF936F80C1E
:100418007808F20072083B020318132A142A182AD3
:100428003B087202BA001B2A72083B02BA0038085D
:10043800031D1F2A202A2F2A22000E161030200002
:100448003A020318282A292A902AB801B80AB701BB
:1004580022000E12902A10303A020318342A352A44
:10046800452A22000E120130F8002000370A3D2AE2
:10047800F835890B3C2A7808FF3AF9007908F40521
:10048800532A22000E160130F8002000370A4D2AA0
:10049800F835890B4C2A7808F9007908F4040130FA
:1004A800F8007808B70708303702031C5C2A5D2A71
:1004B800612AB8010130C400902A902A0530130639
:1004C800031D672A682A902A77082000AC0076085E
:1004D800AB00043026009300710820002C02031D95
:1004E800772A70082B02031C7A2A7B2A822A700832
:1004F8002B02AF0071082C3BB0008E2A7108F9005E
:100508007008F800F809F9092B087807AF002C08DB
:10051800793DB000B901B90A080020004403031D61
:10052800962A972A012BC401DE2AC8307406031DB7
:100538009E2A9F2AA42AC201C20A7408A000012B7D
:10054800C201012B8B307406031DAB2AAC2AA42AE6
:100558007408A1000230C200012B7408A200033005
:10056800C200012B7408A3000430C200012B7408D8
:10057800A4000530C200012B7408A5000630C20093
:10058800012B7408A6000730C200012B7408A700CD
:100598000830C200012B7408A8000930C200012BE2
:1005A8007408A9000A30C200012B7408AA00C3010C
:1005B800C30AA42A4208003A0319992A013A0319DE
:1005C800A62A033A0319B12A013A0319B62A073AA7
:1005D8000319BB2A013A0319C02A033A0319C52A89
:1005E800013A0319CA2A0F3A0319CF2A013A031903
:1005F800D42A033A0319D92AA42A080084313024BA
:10060800833175302000C5000430C6008431E424ED
:10061800833122000D10250091018B170B17200044
:100628008D19172B182B1A2BBC011C2BBC01BC0ACB
:100638008231912283318331C4238331843113245D
:10064800833120003D08031D2A2B2B2B362B3E031C
:10065800031D2F2B302B322BBE011C2B8031462043
:1006680083311C2BBD0122008C140C108431EA2428
:1006780083318431F02483311C2B803126282000DB
:100688003C08031D482B492B6A2B401C4C2B4D2B37
:10069800562BC01A502B512B562B22000C13250019
:1006A8009101832B401C592B5A2B642BC01E5D2BA8
:1006B8005E2B642B22000C172F3025009100832B12
:1006C80022000C13C93025009100832BC01C6D2B10
:1006D8006E2B752BC01A712B722B752B22000C13E5
:1006E800532BC01C782B792B802BC01E7C2B7D2B89
:1006F800802B22000C17602B22000C13662B08009D
:100708004C349F34ED343E346634B534C734143435
:1007180059348A34F8342B347334A034D234013445
:100728008E345D342F34FC34A43477340534D63415
:100738009B3448343A34E934B13462341034C33425
:100748002D34FE348C345F340734D434A6347534F5
:100758003834EB3499344A341234C134B334603405
:10076800EF343C344E349D34C53416346434B734D5
:10077800FA3429345B348834D03403347134A234E5
:1007880020002208F3002308C100C001731DCD2BEF
:10079800CE2BD02BC016D12BC012F31DD42BD52BAA
:1007A800D72B4016D82B4012731EDB2BDC2BDE2BED
:1007B800C015DF2BC011F31EE22BE32BE52B4015F0
:1007C800E62B4011C11EE92BEA2BEC2BC014ED2BB4
:1007D800C010411FF02BF12BF32B4014F42B4010C9
:1007E8000800220090018C0108308D0010308E0026
:1007F800083021009000BC308C00FE308D00FB30AA
:100808008E00363023008D003C308C00240090018F
:1008180008308D002100951322009D010800063044
:1008280020002206031D192C1A2C2E2CD5302A063E
:10083800031D1F2C202C2E2C22008C142000BE01FE
:10084800BE0A22000D100C108431F02484312000DF
:10085800BF012F2CBE0108008331F5238431843178
:10086800BA2484318431F62484318431A02484313B
:100878008431C62484318431D02484318431932452
:10088800843184316124843108000B1175082000FB
:1008980095000130B1070030B23D003032020A3015
:1008A80003193102031C592C5A2C602C8431AD24B5
:1008B80084312000B101B201080021001508C039B7
:1008C800143895000630200095000630F5000B110D
:1008D8008B16FA30C5000430C6008431E424843114
:1008E80008000130F60076082000BF07C8303F0234
:1008F800031C7F2C802C832CBD01BD0ABF0108007E
:100908002000131226001108FA001208FB007B08C9
:10091800F7007A08F6008131C521843108001030CB
:10092800200099009701960111101708B6001608C3
:10093800B5000130980008000C302500930095019F
:10094800803094000130960092019101FC309E05A0
:1009580008002000330834040319B32CB42CB92C34
:1009680034088A0033080A008431080070302100F6
:10097800990098012200960121001A1FC42CC52C49
:10098800C02C080005302600930092019101200038
:100998001312210013160800C83020009B009A018A
:1009A800911007309C000800FE0012001E00FE0B8C
:1009B800D92C0034640080010131890BDF2C00340C
:1009C80020004608B4004508B300080022000D14B2
:1009D800000000000000080022000C172F3025003E
:0E09E80091000800163021009700080008005A
:020000040001F9
:04000E00C43FFF1FCD
:00000001FF
