:0400000080312628FD
:100008007E1480318B1E09280A2812280B1D0D2802
:100018000E28122884313424803124280B1F1528F7
:10002800162824282100131E1A281B2824282000FB
:10003800131E1F282028242884316F248031242867
:100048007E100900803128284F30840083308500D5
:10005800A03086000030870040308431C3248031CE
:10006800F001F101F201F301F401F50120308400FF
:100078000030850025308431C92480317E1020006D
:1000880083310E2B20004008A03E8600870101081E
:10009800C6002A0846060319522853285428D0298E
:1000A800C8302006031959285A285B28D0298B30D4
:1000B80021060319602861286228D029BF01C01EC3
:1000C800662867286A2822008C146C2822008C1065
:1000D80020004019702871288328C01974287528B1
:1000E8008328401A782879288328C01A7C287D28F4
:1000F800832822000D100C1025009101BF294019FA
:10010800862887289A28C0198A288B289A28401A6E
:100118008E288F289A28C01E922893289A28220071
:100128000D100C108431DB248031BF2940199D2823
:100138009E28B128C019A128A228B128401EA528A8
:10014800A628B128C01AA928AA28B12822000D106B
:100158000C108331C0238031BF294019B428B52839
:10016800C528C019B828B928C528401EBC28BD28EC
:10017800C528C01EC028C128C52822000D100C1093
:10018800AD284019C828C928DB28C01DCC28CD288F
:10019800DB28401AD028D128DB28C01AD428D52833
:1001A800DB288431D524803122000C1080284019A6
:1001B800DE28DF28F128C01DE228E328F128401AAC
:1001C800E628E728F128C01EEA28EB28F128843120
:1001D800D524803122000C1096284019F428F528DF
:1001E8000729C01DF828F9280729401EFC28FD28E2
:1001F8000729C01A0029012907298431D52480310B
:1002080022000C10802840190A290B291D29C01D1D
:100218000E290F291D29401E122913291D29C01E28
:10022800162917291D298431D524803122000C1064
:100238009628401D202921293129C019242925293A
:100248003129401A282929293129C01A2C292D2970
:10025800312922000C140D108028401D342935291D
:100268004529C019382939294529401A3C293D29E9
:100278004529C01E40294129452922000C100D108E
:100288009628401D482949295929C0194C294D2922
:100298005929401E502951295929C01A542955292C
:1002A800592922000C100D10AD28401D5C295D292C
:1002B8006D29C019602961296D29401E64296529A5
:1002C8006D29C01E682969296D2922000C100D109E
:1002D800AD28401D702971298329C01D74297529ED
:1002E8008329401A782979298329C01A7C297D29EC
:1002F800832922000C148431D52480318028401DA4
:10030800862987299629C01D8A298B299629401E66
:100318008E298F299629C01A922993299629220075
:100328000C147F29401D99299A29AC29C01D9D29A3
:100338009E29AC29401AA129A229AC29C01EA529A9
:10034800A629AC2922000C148431D52480319628A2
:10035800401DAF29B029BF29C01DB329B429BF2921
:10036800401EB729B829BF29C01EBB29BC29BF29EF
:1003780022000C14A8292000C7014708203E860047
:10038800870181010130C5004508C7070B304702C6
:10039800031CCF29D029C1290800043026001306E0
:1003A800031DD729D8296E2A7708F1007608F000AE
:1003B8000530930020003903031DE329E4299C2A12
:1003C800B9012C087102031DEB292B087002031CCC
:1003D800EE29EF29F6292B087002AD002C08713B95
:1003E800AE00022A2C08F9002B08F800F809F909D0
:1003F80070087807AD007108793DAE003008F90043
:100408002F08F800F936F80CF936F80CF936F80C1C
:100418007808BB002E08F9002D08F800F936F80C0A
:10042800F936F80CF936F80C7808F20072083B0235
:1004380003181F2A202A242A3B087202BA00272AF6
:1004480072083B02BA003808031D2B2A2C2A3B2AC3
:1004580022000E16103020003A020318342A352ADA
:100468009C2AB801B80AB70122000E129C2A103043
:100478003A020318402A412A512A22000E1201305A
:10048800F8002000370A492AF835890B482A7808E5
:10049800FF3AF9007908F4055F2A22000E160130A8
:1004A800F8002000370A592AF835890B582A7808A5
:1004B800F9007908F4040130F8007808B707083023
:1004C8003702031C682A692A6D2AB8010130C40062
:1004D8009C2A9C2A05301306031D732A742A9C2A19
:1004E80077082000AC007608AB00043026009300A3
:1004F800710820002C02031D832A70082B02031C9C
:10050800862A872A8E2A70082B02AF0071082C3B96
:10051800B0009A2A7108F9007008F800F809F9097A
:100528002B087807AF002C08793DB000B901B90A4B
:10053800080020004403031DA22AA32A0D2BC4018E
:10054800EA2AC8307406031DAA2AAB2AB02AC201B7
:10055800C20A7408A0000D2BC2010D2B8B30740643
:10056800031DB72AB82AB02A7408A1000230C200B5
:100578000D2B7408A2000330C2000D2B7408A300D1
:100588000430C2000D2B7408A4000530C2000D2BE6
:100598007408A5000630C2000D2B7408A6000730A9
:1005A800C2000D2B7408A7000830C2000D2B740878
:1005B800A8000930C2000D2B7408A9000A30C20037
:1005C8000D2B7408AA00C301C30AB02A4208003AD6
:1005D8000319A52A013A0319B22A033A0319BD2AB5
:1005E800013A0319C22A073A0319C72A013A03191B
:1005F800CC2A033A0319D12A013A0319D62A0F3A09
:100608000319DB2A013A0319E02A033A0319E52AF8
:10061800B02A080084311B24833160302000C500D3
:100628000430C6008431CF24833122000D10250008
:1006380091018B170B1720008D19232B242B262BA8
:10064800BC01282BBC01BC0A82319D228331833135
:100658008F2383318331FE23833120003D08031D1E
:10066800362B372B422B3E03031D3B2B3C2B3E2BBB
:10067800BE01282B803146208331282BBD01220062
:100688008C140C108431D52483318431DB248331DC
:10069800282B803126284C349F34ED343E349A344C
:1006A800FF34FF34FF342734FF34FF34FF3473340E
:1006B800A034D23401348E345D342F34FC346734A2
:1006C800FF34FF34FF34DA34FF34FF34FF34B134FD
:1006D80062341034C3342D34FE348C345F342C34FB
:1006E800FF34FF34FF343834EB3499344A3412344D
:1006F800C134B3346034EF343C344E349D34D13497
:10070800FF34FF34FF346C34FF34FF34FF34D0340B
:1007180003347134A23420002208F3002308C100F6
:10072800C001731D982B992B9B2BC0169C2BC012B4
:10073800F31D9F2BA02BA22B4016A32B4012731E38
:10074800A62BA72BA92BC015AA2BC011F31EAD2BC6
:10075800AE2BB02B4015B12B4011C11EB42BB52BBD
:10076800B72BC014B82BC010411FBB2BBC2BBE2B02
:100778004014BF2B4010080020003C08031DC52B67
:10078800C62BD52B401CC92BCA2BCF2B22000C13F0
:1007980025009101DF2B22000C13C93025009100A0
:1007A800DF2BC01CD82BD92BDC2B22000C13CC2B15
:1007B80022000C13D12B0800220090018C01083074
:1007C8008D0010308E00083021009000BC308C0065
:1007D800FE308D00FB308E00363023008D003C301B
:1007E8008C002400900108308D0021009513220010
:1007F8009D010800063020002206031D042C052C4C
:10080800192CD5302A06031D0A2C0B2C192C220072
:100818008C142000BE01BE0A22000D100C10843179
:10082800DB2483312000BF011A2CBE01080083316C
:10083800E02384318431A52484318431E124843156
:1008480084318B2484318431B12484318431BB24B4
:10085800843184317E24843184314C2484310800ED
:100868000B117508200095000130B1070030B23D2A
:10087800003032020A3003193102031C442C452C83
:100888004B2C8431982484312000B101B201080036
:1008980021001508C039143895000630200095004D
:1008A8000630F5000B118B16E530C5000430C60084
:1008B8008431CF24843108000130F6007608200006
:1008C800BF07C8303F02031C6A2C6B2C6E2CBD017D
:1008D800BD0ABF0108002000131226001108FA0003
:1008E8001208FB007B08F7007A08F6008131D12155
:1008F80084310800103020009900970196011110EA
:100908001708B6001608B5000130980008000C302A
:1009180025009300950180309400013096009201E3
:100928009101FC309E0508002000330834040319A7
:100938009E2C9F2CA42C34088A0033080A0084318A
:1009480008007030210099009801220096012100CA
:100958001A1FAF2CB02CAB2C0800053026009300D2
:100968009201910120001312210013160800C830CB
:1009780020009B009A01911007309C000800FE009F
:1009880012001E00FE0BC42C0034640080010131EB
:10099800890BCA2C003420004608B4004508B3006F
:1009A800080022000D1400000000000008002200CA
:1009B8000C172F30250091000800163021009700F1
:0409C800080008001B
:020000040001F9
:08000000FF3FFF3FFF3FFF3F00
:04000E00C43FFF1FCD
:00000001FF
