:020000040000FA
:0400000080312628FD
:100008007E1480318B1E09280A2812280B1D0D2802
:100018000E28122884313524803124280B1F1528F6
:10002800162824282100131E1A281B2824282000FB
:10003800131E1F2820282428843170248031242866
:100048007E100900803128285730840083308500CD
:10005800A03086000030870040308431C4248031CD
:10006800F001F101F201F301F401F50120308400FF
:100078000030850025308431CA2480317E1020006C
:100088008231D52A20004008A03E86008701010859
:10009800C6002A0846060319522853285428C4299A
:1000A800C8302006031959285A285B28C4298B30E0
:1000B80021060319602861286228C429BF01C01ECF
:1000C800662867286A2822008C146C2822008C1065
:1000D80020004019702871288328C01974287528B1
:1000E8008328401A782879288328C01A7C287D28F4
:1000F800832822000C100D1025009101B329401906
:10010800862887289A28C0198A288B289A28401A6E
:100118008E288F289A28C01E922893289A28220071
:100128000C100D108431DC248031B32940199D282E
:100138009E28B128C019A128A228B128401EA528A8
:10014800A628B128C01AA928AA28B12822000C106C
:100158000D10833116238031B3294019B428B528EE
:10016800C528C019B828B928C528401EBC28BD28EC
:10017800C528C01EC028C128C52822000C100D1093
:10018800AD284019C828C928DB28C01DCC28CD288F
:10019800DB28401AD028D128DB28C01AD428D52833
:1001A800DB2822000C108431D624803180284019A5
:1001B800DE28DF28F128C01DE228E328F128401AAC
:1001C800E628E728F128C01EEA28EB28F1282200B3
:1001D8000C108431D624803196284019F428F5284B
:1001E8000429C01DF828F9280429401EFC28FD28E8
:1001F8000429C01A00290129042922000C10D72833
:100208004019072908291729C01D0B290C29172966
:10021800401E0F2910291729C01E13291429172930
:1002280022000C10ED28401D1A291B292B29C01962
:100238001E291F292B29401A222923292B29C01AB4
:10024800262927292B2922000C140D108028401D4F
:100258002E292F293F29C019322933293F29401A2D
:10026800362937293F29C01E3A293B293F29220030
:100278000C100D109628401D422943295329C019F6
:10028800462947295329401E4A294B295329C01A70
:100298004E294F29532922000C100D10AD28401D5E
:1002A800562957296729C0195A295B296729401EE9
:1002B8005E295F296729C01E6229632967292200F0
:1002C8000C100D10AD28401D6A296B297A29C01D14
:1002D8006E296F297A29401A722973297A29C01A36
:1002E800762977297A2922000C14D728401D7D29E0
:1002F8007E298D29C01D812982298D29401A8529A9
:1003080086298D29C01E89298A298D2922000C1445
:10031800ED28401D90299129A029C01D94299529CF
:10032800A029401E98299929A029C01A9C299D29ED
:10033800A02922000C14D728401DA329A429B329D9
:10034800C01DA729A829B329401EAB29AC29B32968
:10035800C01EAF29B029B32922000C14ED282000B3
:10036800C7014708203E8600870181010130C5008A
:100378004508C7070B304702031CC329C429B52900
:100388000800043026001306031DCB29CC294C2A6B
:100398007708F1007608F000053093002000390353
:1003A800031DD729D829632AB9012B087002AD008B
:1003B8002C08713BAE003008F9002F08F800F93618
:1003C800F80CF936F80CF936F80C7808BB002E084A
:1003D800F9002D08F800F936F80CF936F80CF9365A
:1003E800F80C7808F20072083B020318FC29FD2972
:1003F800012A3B087202BA00042A72083B02BA00BA
:100408001A307202031C092A0A2A0D2A22000D1723
:100418000F2A22000D1320003808031D142A152A5C
:100428001F2A10303A0203181A2A1B2A4B2AB8012D
:10043800B80AB701632A10303A020318242A252A79
:10044800322A0130F800370A2A2AF835890B292A76
:100458007808FF3AF9007908F4053D2A0130F800D8
:10046800370A372AF835890B362A7808F9007908C7
:10047800F4040130F8007808B70708303702031C85
:10048800462A472A4B2AB8010130C400632A632A46
:1004980005301306031D512A522A632A77082000C3
:1004A800AC007608AB0004302600930070082000EA
:1004B8002B02AF0071082C3BB000B901B90A080043
:1004C80020004403031D692A6A2AD42AC401B12AD8
:1004D800C8307406031D712A722A772AC201C20A1B
:1004E8007408A000D42AC201D42A8B307406031DD4
:1004F8007E2A7F2A772A7408A1000230C200D42AF3
:100508007408A2000330C200D42A7408A30004307F
:10051800C200D42A7408A4000530C200D42A740882
:10052800A5000630C200D42A7408A6000730C2000D
:10053800D42A7408A7000830C200D42A7408A80076
:100548000930C200D42A7408A9000A30C200D42A8B
:100558007408AA00C301C30A772A4208003A03199B
:100568006C2A013A0319792A033A0319842A013AB1
:100578000319892A073A03198E2A013A0319932A7B
:10058800033A0319982A013A03199D2A0F3A0319C5
:10059800A22A013A0319A72A033A0319AC2A772A8F
:1005A800080084311C24823161302000C5000430E9
:1005B800C6008431D024823122000D10250091011B
:1005C8008B170B1720008D19EA2AEB2AED2ABC019C
:1005D800EF2ABC01BC0A8231642282318331CD23E7
:1005E800823183319723823120003D08031DFD2A83
:1005F800FE2A092B3E03031D022B032B052BBE01EC
:10060800EF2A803146208231EF2ABD0122008C1466
:100618000C108431D62482318431DC248231EF2AD3
:100628008031262820003C08031D1B2B1C2B3D2B4A
:10063800401C1F2B202B292BC01A232B242B292BA2
:1006480022000C1325009101562B401C2C2B2D2B1E
:10065800372BC01E302B312B372B22000C172F3095
:1006680025009100562B22000C13C930250091005B
:10067800562BC01C402B412B482BC01A442B452B12
:10068800482B22000C13262BC01C4B2B4C2B532B16
:10069800C01E4F2B502B532B22000C17332B22003C
:1006A8000C13392B08004C349F34ED343E34663437
:1006B800B534C734143459348A34F8342B34733489
:1006C800A034D23401348E345D342F34FC34A43455
:1006D80077340534D6349B3448343A34E934B13469
:1006E80062341034C3342D34FE348C345F34073410
:1006F800D434A63475343834EB3499344A3412344B
:10070800C134B3346034EF343C344E349D34C53492
:1007180016346434B734FA3429345B348834D0342A
:1007280003347134A234063020002206031D9D2BA9
:100738009E2BB22BD5302A06031DA32BA42BB22B3C
:1007480022008C142000BE01BE0A22000D100C10DD
:100758008431DC2483312000BF01CC2B02302206F7
:10076800031DB72BB82BCB2BB4302A06031DBD2B8A
:10077800BE2BCB2B22008C102000BE01BE0A22000B
:100788000D100C10250091012000BF01CC2BBE01DB
:10079800080020002208F3002308C100C001731DCF
:1007A800D62BD72BD92BC016DA2BC012F31DDD2B75
:1007B800DE2BE02B4016E12B4012731EE42BE52BB9
:1007C800E72BC015E82BC011F31EEB2BEC2BEE2BFF
:1007D8004015EF2B4011C11EF22BF32BF52BC01443
:1007E800F62BC010411FF92BFA2BFC2B4014FD2BC4
:1007F80040100800220090018C0148308D00103014
:100808008E00083021009000BC308C00BE308D0076
:10081800FB308E00363023008D003C308C002400E5
:10082800900108308D002100951322009D010800D9
:100838008331FE2384318431A62484318431E22437
:10084800843184318C2484318431B22484318431DC
:10085800BC24843184317F24843184314D24843113
:1008680008000B117508200095000130B107003011
:10087800B23D003032020A3003193102031C452C04
:10088800462C4C2C8431992484312000B101B201CA
:10089800080021001508C0391438950006302000DA
:1008A80095000630F5000B118B16E630C5000430B4
:1008B800C6008431D024843108000130F60076085F
:1008C8002000BF07C8303F02031C6B2C6C2C6F2C18
:1008D800BD01BD0ABF01080020001312260011083F
:1008E800FA001208FB007B08F7007A08F60081314D
:1008F800C521843108001030200099009701960125
:1009080011101708B6001608B50001309800080045
:100918000C3025009300950180309400013096003A
:1009280092019101FC309E05080020003308340430
:1009380003199F2CA02CA52C34088A0033080A0020
:100948008431080070302100990098012200960136
:1009580021001A1FB02CB12CAC2C08000530260041
:100968009300920191012000131221001316080030
:10097800C83020009B009A01911007309C000800A5
:10098800FE0012001E00FE0BC52C0034640080011E
:100998000131890BCB2C003420004608B4004508EF
:1009A800B300080022000D14000000000000080039
:1009B80022000C172F302500910008001630210066
:0609C80097000800080082
:020000040001F9
:04000E00C43FFF1FCD
:00000001FF
